S0140000636F6E74726F6C5F6D6567612E7372656316
S113000045C0000053C0000051C000004FC00000B4
S11300104DC000004BC0000049C0000047C00000B4
S113002045C0000043C0000041C000003FC00000C4
S11300303DC000003BC0000039C0000062C00000A9
S113004087C0000033C0000031C000002FC0000092
S11300502DC000002BC0000029C0000027C00000F4
S113006025C0000023C0000021C000001FC0000004
S11300701DC000001BC0000019C0000017C0000014
S113008015C0000013C0000011C0000011241FBEE1
S1130090CFEFD0E1DEBFCDBF21E0A0E0B1E001C0F1
S11300A01D92AD30B207E1F766D09EC0A9CFA2E69B
S11300B0B0E08C918F7B8C93E1E6F0E080818064EA
S11300C080838C91837C8C938081837C80838BB3AD
S11300D0837C8BBB8AB3807F8ABB089582B3837091
S11300E082BB81B38C6F81BB88B38F7188BB87B3AC
S11300F0806E87BB85B3857F85BB84B38A6084BBF0
S113010008951F920F920FB60F9211240BB60F92FF
S11301108F939F93EF93FF9312BEE0E0F1E0808111
S113012091810196918380830A9721F41182108230
S113013081E0808786B7826086BFFF91EF919F91AF
S11301408F910F900BBE0F900FBE0F901F901895BC
S11301501F920F920FB60F92112400000F900FBE42
S11301600F901F90189582E083BF81E681BF87B707
S1130170826087BF089580E888B90FB6F894A8957F
S113018081B5886181BD11BC0FBE82B1806882B91E
S113019083B1806883B987B3806187BB88B380618A
S11301A088BB0DD01BD09ADF82DFDDDF789400009E
S11301B0809108018130D9F710920801F8CF24B357
S11301C081E090E002C0880F991F2A95E2F794B36A
S11301D0892B84BB85B38E7F85BB0895E1E6F0E06F
S10F01E080818F7380830895F894FFCF12
S9030000FC
